S01C00006D67616C6F3030315F6C616231305F70617274322E7372656330
S113000045C0000060C000005EC000005CC000008D
S11300105AC0000058C0000056C0000054C0000080
S113002052C0000050C000004EC000004CC0000090
S11300304AC000006DC0000046C0000044C000007B
S113004042C0000040C000003EC000003CC00000B0
S11300503AC0000038C0000036C0000034C00000C0
S113006032C0000030C000002EC000002CC00000D0
S11300702AC0000028C0000026C0000024C00000E0
S113008022C0000020C000001EC0000011241FBEBA
S1130090CFEFD0E4DEBFCDBF11E0A0E0B1E0EEE1F0
S11300A0F3E000E00BBF02C007900D92A430B1074B
S11300B0D9F721E0A4E0B1E001C01D92AE30B2074F
S11300C0E1F7E4D02AC19CCF8BE0809381008DE7D7
S11300D090E0909389008093880082E080936F0081
S11300E0109285001092840080910001909101018A
S11300F0A0910201B091030180930601909307013E
S1130100A0930801B09309018FB780688FBF089549
S11301101F920F920FB60F9211248F939F93AF9358
S1130120BF938091060190910701A0910801B091BD
S113013009010197A109B109809306019093070170
S1130140A0930801B0930901892B8A2B8B2B99F476
S113015081E080930A018091000190910101A091B6
S11301600201B09103018093060190930701A093CB
S11301700801B0930901BF91AF919F918F910F90A6
S11301800FBE0F901F9018956093000170930101AA
S11301908093020190930301609306017093070119
S11301A08093080190930901089580910D01813095
S11301B041F018F0823049F00CC081E080930D01C9
S11301C011C082E080930D0110C081E080930D0185
S11301D009C0813039F018F0823051F406C0109211
S11301E00401089510920401089581E080930401AC
S11301F0089580910C01813051F028F0823059F03B
S1130200833069F010C081E080930C0117C082E054
S113021080930C0117C083E080930C0117C081E028
S113022080930C010BC0813049F028F0823051F0EA
S1130230833079F40BC010920501089581E0809316
S11302400501089582E080930501089584E0809378
S11302500501089580910B01882319F0813061F024
S113026004C081E080930B0107C0882319F081301A
S113027061F402C015B8089580910401880F880FB5
S1130280880F90910501892B85B908958FEF84B962
S113029015B864E670E080E090E076DF15DF109238
S11302A00D0110920C0110920B010F2EFCE28F2E07
S11302B099249394A12CB12CF02D0F2EF8EECF2E6F
S11302C0F3E0DF2EE12CF12CF02D88EEC81683E04C
S11302D0D806E104F10420F068DFC12CD12C7601AA
S11302E08CE2881681E09806A104B10420F081DF35
S11302F0812C912C5401AEDF80910A018823E1F313
S113030010920A0184E6C80ED11CE11CF11C84E69B
S1110310880E911CA11CB11CD8CFF894FFCF0D
S107031E01000000D6
S9030000FC
