S01C00006D67616C6F3030315F6C616231315F70617274352E737265632C
S113000045C0000060C000005EC000005CC000008D
S11300105AC0000058C0000056C0000054C0000080
S113002052C0000050C000004EC000004CC0000090
S11300304AC000006DC0000046C0000044C000007B
S113004042C0000040C000003EC000003CC00000B0
S11300503AC0000038C0000036C0000034C00000C0
S113006032C0000030C000002EC000002CC00000D0
S11300702AC0000028C0000026C0000024C00000E0
S113008022C0000020C000001EC0000011241FBEBA
S1130090CFEFD0E4DEBFCDBF11E0A0E0B1E0E6E2F7
S11300A0F5E000E00BBF02C007900D92AE31B1073E
S11300B0D9F721E0AEE1B1E001C01D92AA33B20745
S11300C0E1F79ED12EC29CCF8BE0809381008DE717
S11300D090E0909389008093880082E080936F0081
S11300E01092850010928400809104019091050182
S11300F0A0910601B09107018093350190933601D8
S1130100A0933701B09338018FB780688FBF0895EB
S11301101F920F920FB60F9211248F939F93AF9358
S1130120BF938091350190913601A0913701B09130
S113013038010197A109B1098093350190933601E3
S1130140A0933701B0933801892B8A2B8B2B99F418
S113015081E0809339018091040190910501A0917F
S11301600601B09107018093350190933601A09365
S11301703701B0933801BF91AF919F918F910F9048
S11301800FBE0F901F9018956093040170930501A2
S113019080930601909307016093350170933601B3
S11301A080933701909338010895181619065CF06E
S11301B00895000021503109E1F74F5F5F4F841724
S11301C0950719F4089540E050E027E033E0F1CFBB
S11301D05E9888B95F9A00005F9882E090E0E5CF6E
S11301E0089581E0F5CF0895813118F48158F0CF56
S11301F008958155EDCF08958430910554F48230EB
S113020091050CF040C0009759F08130910599F0A8
S113021024C084309105F1F08530910579F11DC039
S1130220309B52C080913401811128C0809100011B
S1130230882349F123C0309B4AC0319B30C0329B94
S113024028C031E020E080913401811130E0832F17
S1130250922F03C0309929C0089582309105F9F096
S113026034F4009759F08130910599F50CC083302E
S1130270910579F085309105C1F0089581E1B4DFED
S113028080E090E0089580910101AEDF81E090E08C
S1130290089581E08093010183E090E0089581E175
S11302A08093010182E090E0089580910001813003
S11302B029F41092000185E090E0089581E0809394
S11302C0000185E090E0089584E090E0089584E0E2
S11302D090E0089584E690E068DF88E379DF86E0C3
S11302E077DF8FE075DF81E073DF8AE090E05DCF38
S11302F008955E9A88B95F9A00005F9881E090E063
S113030054CF08950F931F93CF93DF93182FEB01CE
S113031068DF8881882351F001E0010F812F64DFB9
S11303208991E7DF102F88818111F6CFDF91CF917A
S11303301F910F910895CF93DF93EC01009721F063
S1130340019709F447C058C080910001811154C03D
S113035080910101813071F4809103018130D1F4E5
S113036068E071E087E0CEDF81E080933401C1E092
S1130370D0E042C0813171F480910201813151F4A5
S113038068E071E087E0BEDF81E080933401C1E082
S1130390D0E032C026DF8091030126DF83E2A9DFAB
S11303A08091020121DF83E2A4DF90910301915047
S11303B09093030180910201815080930201911175
S11303C003C090E1909303018031B1F480E2809303
S11303D0020112C0309910C081E18093010181E0D3
S11303E0809300011092340189E0809303018DE130
S11303F080930201C0E0D0E0CE01DF91CF91089557
S1130400CF93DF9300D000D0CDB7DEB78FEF81B9A3
S113041012B817B888B98AB91BB8A9E2B1E0BA838F
S1130420A983EEE1F1E0FC83EB831C9244E150E00C
S113043060E070E011964D935D936D937C931497F7
S113044015964D935D936D937C9318978BE991E08A
S11304501A969C938E931997108281E090E0A0E005
S1130460B0E081839283A383B48385839683A78337
S1130470B0878CEF90E0928781876AE070E080E03B
S113048090E082DE21DE26DF80910301ADDE83E28F
S113049030DF80910201A8DE83E22BDF7E0185E05C
S11304A0E80EF11CDE0111966D01F6010191119126
S11304B06F01D80115964D915D916D917C911897BE
S11304C011968D919D910D90BC91A02D48175907BF
S11304D06A077B0780F0F80180810184F285E02DB2
S11304E0082E000C990B0995D8018C93F8011582FC
S11304F0168217821086F80185819681A781B085BE
S11305000196A11DB11D85839683A783B087CE1460
S1130510DF0459F6809139018823E1F310923901FF
S1090520C1CFF894FFCFE7
S113052601111D0901000000596F752020202020AB
S1110536202020202020204C6F73652100001F
S9030000FC
