:1000000045C0000060C000005EC000005CC0000091
:100010005AC0000058C0000056C0000054C0000084
:1000200052C0000050C000004EC000004CC0000094
:100030004AC000006DC0000046C0000044C000007F
:1000400042C0000040C000003EC000003CC00000B4
:100050003AC0000038C0000036C0000034C00000C4
:1000600032C0000030C000002EC000002CC00000D4
:100070002AC0000028C0000026C0000024C00000E4
:1000800022C0000020C000001EC0000011241FBEBE
:10009000CFEFD0E4DEBFCDBF11E0A0E0B1E0ECE5F2
:1000A000F2E000E00BBF02C007900D92AE30B10746
:1000B000D9F721E0AEE0B1E001C01D92A531B20751
:1000C000E1F7B5D0C9C09CCF8BE0809381008DE76C
:1000D00090E0909389008093880082E080936F0085
:1000E000109285001092840080910001909101018E
:1000F000A0910201B091030180930E0190930F0132
:10010000A0931001B09311018FB780688FBF08953D
:100110001F920F920FB60F9211248F939F93AF935C
:10012000BF9380910E0190910F01A0911001B091A9
:1001300011010197A109B10980930E0190930F015C
:10014000A0931001B0931101892B8A2B8B2B99F46A
:1001500081E0809312018091000190910101A091B2
:100160000201B091030180930E0190930F01A093BF
:100170001001B0931101BF91AF919F918F910F909A
:100180000FBE0F901F9018956093000170930101AE
:10019000809302019093030160930E0170930F010D
:1001A0008093100190931101089580911401823081
:1001B00099F028F4882341F0813051F01FC083303A
:1001C00089F08430A9F01AC081E08093140123C023
:1001D00082E08093140122C0009920C083E08093C4
:1001E00014010895009B22C084E0809314010895B7
:1001F00000991CC081E0809314010DC0109214017D
:10020000089510921301E0911301F0E0EC5FFE4FAE
:10021000808185B90895109213010895809113018A
:100220008F5F893071F380931301EDCF089511B87A
:100230008FEF82B984B915B81092140164E670E0AA
:1002400080E090E0A1DF40DFB0DF809112018823E1
:0C025000E1F310921201F8CFF894FFCFF8
:0E025C0001000000010101020202040404007E
:00000001FF
