:1000000045C0000053C0000051C000004FC00000B8
:100010004DC000004BC0000049C0000047C00000B8
:1000200045C0000043C0000041C000003FC00000C8
:100030003DC000003BC0000039C0000037C00000D8
:1000400035C0000033C0000031C000002FC00000E8
:100050002DC000002BC0000029C0000027C00000F8
:1000600025C0000023C0000021C000001FC0000008
:100070001DC000001BC0000019C0000017C0000018
:1000800015C0000013C0000011C0000011241FBEE5
:10009000CFEFD0E4DEBFCDBF21E0A0E0B1E001C0F2
:1000A0001D92A330B207E1F78FD0BBC0A9CFCF9389
:1000B000DF9300D01F92CDB7DEB789836A834B836D
:1000C0008B81882371F08A81282F30E081E090E0D5
:1000D00002C0880F991F2A95E2F7982F8981892BF2
:1000E0000EC08A81282F30E081E090E002C0880FA6
:1000F000991F2A95E2F7982F9095898189230F906F
:100100000F900F90DF91CF910895CF93DF93CDB7EC
:10011000DEB780910201882F90E08130910549F08F
:100120008230910591F0892BE1F481E08093020106
:100130001BC080910001882321F082E0809302019E
:1001400013C081E0809302010FC0809100018823D9
:1001500021F081E08093020107C082E080930201D8
:1001600003C010920201000080910201882F90E0EC
:100170008130910531F08230910591F0892BF9F0B1
:100180001FC08091010141E060E091DF8093010197
:100190008091010140E061E08ADF8093010110C09D
:1001A0008091010140E060E082DF80930101809155
:1001B000010141E061E07BDF8093010101C00000AB
:1001C0000000DF91CF910895CF93DF93CDB7DEB7D5
:1001D00081E290E0FC01108282E290E02FEFFC01CE
:1001E000208384E290E02FEFFC01208385E290E001
:1001F000FC0110828091010141E060E058DF8093B2
:1002000001011092020180E290E0FC018081809364
:1002100000017BDF85E290E020910101FC01208359
:06022000F2CFF894FFCFBD
:00000001FF
