:1000000045C000004BC0000049C0000047C00000D0
:1000100045C0000043C0000041C000003FC00000D8
:100020003DC000003BC0000039C0000037C00000E8
:1000300035C0000033C0000031C000002FC00000F8
:100040002DC000002BC0000029C0000027C0000008
:1000500025C0000023C0000021C000001FC0000018
:100060001DC000001BC0000019C0000017C0000028
:1000700015C0000013C0000011C000000FC0000038
:100080000DC000000BC0000009C0000011241FBEFD
:10009000CFEFD0E4DEBFCDBF20D095C0B1CFCF939E
:1000A000DF9300D0CDB7DEB789836A838981882F3B
:1000B00090E02A81222F30E002C0959587952A95FD
:1000C000E2F78170992721E0892B09F420E0822F43
:1000D0000F900F90DF91CF910895CF93DF9300D0D1
:1000E0001F92CDB7DEB781E290E0FC01108282E280
:1000F00090E02FEFFC01208387E290E02FEFFC01DE
:10010000208388E290E0FC0110821A821B8219820F
:1001100080E290E0FC0180818F708A8380E290E031
:10012000FC01808180778B838A81813019F08A81FC
:10013000823011F480E289838A81833019F08A81C8
:10014000843011F480E389838A81853019F08A81B3
:10015000863011F488E389838A81873028F08A8188
:100160008A3010F48CE389838A818A3028F08A816E
:100170008D3010F48EE389838A818D3028F08A8156
:10018000803110F48FE389838A81843018F4898167
:10019000805C898366E08B8182DF882369F465E077
:1001A0008B817DDF882341F064E08B8178DF8823B9
:1001B00019F089818058898388E290E02981FC01C7
:0A01C00020831982A5CFF894FFCF29
:00000001FF
