:1000000045C0000060C000005EC000005CC0000091
:100010005AC0000058C0000056C0000054C0000084
:1000200052C0000050C000004EC000004CC0000094
:100030004AC00000A1C0000046C0000044C000004B
:1000400042C0000040C000003EC000003CC00000B4
:100050003AC0000038C0000036C0000034C00000C4
:1000600032C0000030C000002EC000002CC00000D4
:100070002AC0000028C0000026C0000024C00000E4
:1000800022C0000020C000001EC0000011241FBEBE
:10009000CFEFD0E4DEBFCDBF11E0A0E0B1E0E6EAF3
:1000A000F3E000E00BBF02C007900D92A430B1074F
:1000B000D9F721E0A4E0B1E001C01D92AC30B20755
:1000C000E1F757D16EC19CCF181619065CF0089560
:1000D000000021503109E1F74F5F5F4F841795070A
:1000E00019F4089540E050E027E033E0F1CF5E9846
:1000F00088B95F9A00005F9882E090E0E5CF0895AC
:1001000084E690E0E1DF88E3F2DF86E0F0DF8FE075
:10011000EEDF81E0ECDF8AE090E0D6CF08955E9AD2
:1001200088B95F9A00005F9881E090E0CDCF089594
:100130008BE0809381008DE790E09093890080931D
:10014000880082E080936F001092850010928400F6
:100150008091000190910101A0910201B0910301F1
:100160008093040190930501A0930601B0930701C9
:100170008FB780688FBF08951F920F920FB60F92AE
:1001800011248F939F93AF93BF938091040190911B
:100190000501A0910601B09107010197A109B109DC
:1001A0008093040190930501A0930601B093070189
:1001B000892B8A2B8B2B99F481E080930801809105
:1001C000000190910101A0910201B091030180937F
:1001D000040190930501A0930601B0930701BF911C
:1001E000AF919F918F910F900FBE0F901F90189518
:1001F00060930001709301018093020190930301C9
:1002000060930401709305018093060190930701A8
:10021000089580910B018230B9F028F4882361F0B1
:10022000813071F05FC08530F1F1873009F456C03C
:10023000833009F057C01CC081E080930B0189C056
:1002400082E080930B010895009904C083E08093BD
:100250000B017AC0019904C085E080930B0183C033
:10026000009986C0019984C087E080930B0169C022
:10027000009B0DC0019B0BC080910A01893018F4CE
:100280008F5F80930A0182E080930B0108950099AB
:1002900002C0019959C0009957C0019955C087E023
:1002A00080930B014EC0009B0DC0019B0BC0809141
:1002B0000A01882319F0815080930A0182E080931B
:1002C0000B010895009B02C0019B4DC000994BC0DB
:1002D000019949C087E080930B0133C081E080938E
:1002E0000B0137C010920B0108958F5F80930901B5
:1002F00080910901893049F480910A01893028F4FC
:100300008F5F80930A0110920901FADE80910A0141
:10031000805D05CF08958F5F809309018091090169
:10032000893049F480910A01882329F08150809313
:100330000A0110920901E4DE80910A01805DEFCE8E
:10034000089510920A01089580910901893068F298
:10035000CFCF1092090110920A01D2DE80910A01DA
:10036000805DDDCE0895809109018930A0F2D6CF5D
:10037000089511B88FEF82B987B918B88AB91BB838
:1003800010920B0164E670E080E090E031DFD0DE97
:10039000B7DE3FDF809108018823E1F31092080166
:0603A000F8CFF894FFCF36
:0403A6000100000052
:00000001FF
