S01C00006D67616C6F3030315F6C616231315F70617274342E737265632D
S113000067C0000082C0000080C000007EC0000005
S11300107CC000007AC0000078C0000076C00000F8
S113002074C0000072C0000070C000006EC0000008
S11300306CC000008FC0000068C0000066C00000F3
S113004064C0000062C0000060C000005EC0000028
S11300505CC000005AC0000058C0000056C0000038
S113006054C0000052C0000050C000004EC0000048
S11300704CC000004AC0000048C0000046C0000058
S113008044C0000042C0000040C0000059026302A6
S11300906302630263026302630244026302630253
S11300A06302630263024F02B501C001CB01D601B2
S11300B0E101EC01F70102020D0263026302630233
S11300C06302630263026302180223022E023902EE
S11300D011241FBECFEFD0E4DEBFCDBF11E0A0E0FE
S11300E0B1E0E6EAF5E000E00BBF02C007900D9234
S11300F0A631B107D9F721E0A6E1B1E001C01D9214
S1130100A732B207E1F7EED14CC27ACF8BE08093ED
S113011081008DE790E0909389008093880082E0CD
S113012080936F00109285001092840080910101E9
S113013090910201A0910301B091040180932201E6
S113014090932301A0932401B09325018FB7806875
S11301508FBF08951F920F920FB60F9211248F93A1
S11301609F93AF93BF938091220190912301A0911B
S11301702401B09125010197A109B10980932201BD
S113018090932301A0932401B0932501892B8A2BFA
S11301908B2B99F481E08093260180910101909149
S11301A00201A0910301B091040180932201909374
S11301B02301A0932401B0932501BF91AF919F9196
S11301C08F910F900FBE0F901F90189560930101AF
S11301D070930201809303019093040160932201C0
S11301E07093230180932401909325010895181698
S11301F019065CF00895000021503109E1F74F5FC2
S11302005F4F8417950719F4089540E050E027E004
S113021033E0F1CF5E9888B95F9A00005F9882E07E
S113022090E0E5CF089581E0F5CF0895813118F489
S11302308158F0CF08958155EDCF089584E690E07C
S1130240D6DF88E3E7DF86E0E5DF8FE0E3DF81E008
S1130250E1DF8AE090E0CBCF08955E9A88B95F9A97
S113026000005F9881E090E0C2CF08950F931F9340
S1130270CF93DF93182FEB01D6DF8881882351F0C9
S113028001E0010F812FD2DF8991E7DF102F8881F0
S11302908111F6CFDF91CF911F910F9108958FEEC9
S11302A088B90000309B29C0319B29C0329B29C0EA
S11302B0339B29C08FED88B90000309B26C0319B49
S11302C026C0329B26C0339B26C08FEB88B9000022
S11302D0309B23C0319B23C0329B23C0339B23C05C
S11302E08FE788B90000309B20C0319B20C0329B2F
S11302F020C0339B20C080E0089581E3089584E307
S1130300089587E308958AE2089582E3089585E3D2
S1130310089588E3089580E3089583E3089586E3C8
S1130320089589E3089583E2089581E4089582E4B9
S1130330089583E4089584E408950F931F93CF935D
S11303408C01ADDFC82F8091000170DF011511050C
S113035009F0C3C08C2F90E0FC01B397E232F105A1
S113036008F0B1C0EA5BFF4F13C181E08093210123
S113037081E373DF809100018F5F80930001A3C04C
S113038082E08093210182E368DF809100018F5F26
S11303908093000198C083E08093210183E35DDFB3
S11303A0809100018F5F809300018DC084E0809371
S11303B0210184E352DF809100018F5F809300016B
S11303C082C085E08093210185E347DF80910001AD
S11303D08F5F8093000177C086E08093210186E3DC
S11303E03CDF809100018F5F809300016CC087E047
S11303F08093210187E331DF809100018F5F809337
S1130400000161C088E08093210188E326DF8091A8
S113041000018F5F8093000156C089E08093210121
S113042089E31BDF809100018F5F809300014BC043
S11304308AE08093210181E410DF809100018F5FC5
S11304408093000140C08BE08093210182E405DFAA
S1130450809100018F5F8093000135C08CE0809310
S1130460210183E4FADE809100018F5F8093000113
S11304702AC08DE08093210184E4EFDE80910001A5
S11304808F5F809300011FC08EE0809321018AE278
S1130490E4DE809100018F5F8093000114C010920C
S11304A0210180E3DADE809100018F5F80930001F7
S11304B00AC08FE08093210183E2CFDE80910001A6
S11304C08F5F8093000180910001813119F481E0F4
S11304D0809300018091210185B9C801CF911F91BA
S11304E00F9108958FEF81B912B884B915B890EFC0
S11304F097B99FE098B98AB91BB8E6E1F1E0108298
S113050088EC90E0A0E0B0E081839283A383B4837D
S113051085839683A783B0878DE991E0928781874D
S113052061E070E080E090E051DEF0DD87DE65E0C0
S113053071E081E09BDEC6E1D1E04D815E816F8197
S1130540788589819A81AB81BC81481759076A07EC
S11305507B0760F08881E985FA85082E000C990BE9
S1130560099588831D821E821F8218868D819E8133
S1130570AF81B8850196A11DB11D8D839E83AF8384
S1130580B887809126018823E1F310922601D5CF04
S1130590EE0FFF1F0024001C0BBE0790F691E02D08
S10905A00994F894FFCF5A
S11305A60101000000436F6E67726174756C6174BB
S10905B6696F6E73210061
S9030000FC
