S01B00006D67616C6F3030315F6C6162365F70617274312E737265635D
S113000045C0000060C000005EC000005CC000008D
S11300105AC0000058C0000056C0000054C0000080
S113002052C0000050C000004EC000004CC0000090
S11300304AC000006DC0000046C0000044C000007B
S113004042C0000040C000003EC000003CC00000B0
S11300503AC0000038C0000036C0000034C00000C0
S113006032C0000030C000002EC000002CC00000D0
S11300702AC0000028C0000026C0000024C00000E0
S113008022C0000020C000001EC0000011241FBEBA
S1130090CFEFD0E4DEBFCDBF11E0A0E0B1E0E0E2FD
S11300A0F2E000E00BBF02C007900D92A430B1074C
S11300B0D9F721E0A4E0B1E001C01D92AB30B20752
S11300C0E1F799D0ABC09CCF8BE0809381008DE7A2
S11300D090E0909389008093880082E080936F0081
S11300E0109285001092840080910001909101018A
S11300F0A0910201B0910301809304019093050142
S1130100A0930601B09307018FB780688FBF08954D
S11301101F920F920FB60F9211248F939F93AF9358
S1130120BF938091040190910501A0910601B091C3
S113013007010197A109B109809304019093050176
S1130140A0930601B0930701892B8A2B8B2B99F47A
S113015081E0809308018091000190910101A091B8
S11301600201B09103018093040190930501A093CF
S11301700601B0930701BF91AF919F918F910F90AA
S11301800FBE0F901F9018956093000170930101AA
S1130190809302019093030160930401709305011D
S11301A08093060190930701089580910A0181309C
S11301B059F018F08230D1F00BC081E080930A012D
S11301C08093090185B9089582E080930A010EC0E5
S11301D010920A010895880F8093090103C081E0F9
S11301E0809309018091090185B9089580910901DD
S11301F0843088F3F4CF8FEF84B915B810920A01D4
S113020068EE73E080E090E0BFDF5EDFCEDF8091D8
S113021008018823E1F310920801F8CFF894FFCF86
S107022001000000D5
S9030000FC
