S01C00006D67616C6F3030315F6C616231305F70617274352E737265632D
S113000045C0000060C000005EC000005CC000008D
S11300105AC0000058C0000056C0000054C0000080
S113002052C0000050C000004EC000004CC0000090
S11300304AC000006DC0000046C0000044C000007B
S113004042C0000040C000003EC000003CC00000B0
S11300503AC0000038C0000036C0000034C00000C0
S113006032C0000030C000002EC000002CC00000D0
S11300702AC0000028C0000026C0000024C00000E0
S113008022C0000020C000001EC0000011241FBEBA
S1130090CFEFD0E4DEBFCDBF11E0A0E0B1E0E8E4F3
S11300A0F4E000E00BBF02C007900D92A430B1074A
S11300B0D9F721E0A4E0B1E001C01D92A431B20758
S11300C0E1F770D1BFC19CCF8BE0809381008DE7B5
S11300D090E0909389008093880082E080936F0081
S11300E0109285001092840080910001909101018A
S11300F0A0910201B091030180930D0190930E0130
S1130100A0930F01B09310018FB780688FBF08953B
S11301101F920F920FB60F9211248F939F93AF9358
S1130120BF9380910D0190910E01A0910F01B091A8
S113013010010197A109B10980930D0190930E015B
S1130140A0930F01B0931001892B8A2B8B2B99F468
S113015081E0809311018091000190910101A091AF
S11301600201B091030180930D0190930E01A093BD
S11301700F01B0931001BF91AF919F918F910F9098
S11301800FBE0F901F9018956093000170930101AA
S1130190809302019093030160930D0170930E010B
S11301A080930F0190931001089580910401909120
S11301B00501A0910601B0910701883E23E0920752
S11301C0A105B105D1F48091080190910901A09194
S11301D00A01B0910B01883B9B40A105B10558F180
S11301E080E991E0A0E0B0E08093040190930501E0
S11301F0A0930601B09307011EC081309105A105AB
S1130200B10579F58091080190910901A0910A0145
S1130210B0910B01883E9340A105B10538F188EEF9
S113022093E0A0E0B0E08093040190930501A093D3
S11302300601B093070180911201823041F480914C
S11302400C01893098F48F5F80930C0108958330FA
S113025069F480910C01882349F0815080930C014A
S1130260089580399140A105B10529F3089580913D
S11302701201823041F128F4882349F0813059F089
S11302805CC08330C9F1843009F44FC056C081E0AA
S11302908093120159C0009906C0019B04C082E0FA
S11302A0809312010895009B06C0019904C083E065
S11302B0809312010895009947C0019945C084E0D4
S11302C08093120156C0009904C0019B02C06DDFE7
S11302D034C0009906C0019904C084E080931201DF
S11302E048C081E08093120180910C01893060F54F
S11302F08F5F80930C0128C0009B04C0019902C049
S113030054DF1BC0009906C0019904C084E08093A7
S113031012012FC081E08093120180910C01882387
S113032099F0815080930C010FC0009B22C0019B67
S113033020C081E08093120107C0809112018130B6
S113034019F08430B1F00895109208011092090157
S113035010920A0110920B0181E090E0A0E0B0E05D
S11303608093040190930501A0930601B0930701C3
S1130370089510920C01089580911301882319F0B7
S1130380813061F004C081E08093130107C08823A9
S113039019F0813031F402C015B8089580910C0130
S11303A085B9089511B88FEF82B984B915B861E0A1
S11303B070E080E090E0E8DE87DE10921201109297
S11303C0130181E090E0A0E0B0E0809304019093F9
S11303D00501A0930601B0930701C12CD12C76012D
S11303E0C3948091040190910501A0910601B091FC
S11303F00701C816D906EA06FB0620F038DFC12C2F
S1130400D12C7601B9DF809111018823E1F3109298
S113041011018FEFC81AD80AE80AF80A8091080176
S113042090910901A0910A01B0910B010196A11DBF
S1130430B11D8093080190930901A0930A01B09320
S10B04400B01CFCFF894FFCFAC
S107044801000000AB
S9030000FC
