:100000008AC00000A5C00000A3C00000A1C000007D
:100010009FC000009DC000009BC0000099C0000070
:1000200097C0000095C0000093C0000091C0000080
:100030008FC00000B2C000008BC0000089C000006B
:1000400087C0000085C0000083C0000081C00000A0
:100050007FC000007DC000007BC0000079C00000B0
:1000600077C0000075C0000073C0000071C00000C0
:100070006FC000006DC000006BC0000069C00000D0
:1000800067C0000065C0000063C000007801BB01CC
:10009000BB01BB01BB01BB01BB01BB01BB01BB0180
:1000A000BB01BB01BB01BB01BB01BB01BB01BB0170
:1000B000BB01BB01BB01BB01BB01BB01BB01BB0160
:1000C000BB01BB01BB01BB01BB01BB01BB01BB0150
:1000D000BB01B701BB01BB01BB01BB01BB01BB0144
:1000E000B001BB01BB01BB01BB01BB01B4017C0181
:1000F0008001840188018C019001940198019C0188
:10010000BB01BB01BB01BB01BB01BB01BB01A0012A
:10011000A401A801AC0111241FBECFEFD0E4DEBFC3
:10012000CDBF11E0A0E0B1E0E2E4F4E000E00BBFFD
:1001300002C007900D92A430B107D9F721E0A4E0E6
:10014000B1E001C01D92A531B207E1F71ED177C120
:1001500057CF8BE0809381008DE790E090938900EA
:100160008093880082E080936F0010928500109247
:1001700084008091000190910101A0910201B09151
:1001800003018093100190931101A0931201B09389
:1001900013018FB780688FBF08951F920F920FB61B
:1001A0000F9211248F939F93AF93BF93809110016F
:1001B00090911101A0911201B09113010197A10931
:1001C000B1098093100190931101A0931201B09393
:1001D0001301892B8A2B8B2B99F481E080931401D6
:1001E0008091000190910101A0910201B091030161
:1001F0008093100190931101A0931201B093130109
:10020000BF91AF919F918F910F900FBE0F901F9054
:1002100018956093000170930101809302019093FF
:100220000301609310017093110180931201909368
:10023000130108958FEE88B90000309B29C0319BCF
:1002400029C0329B29C0339B29C08FED88B900009B
:10025000309B26C0319B26C0329B26C0339B26C0D4
:100260008FEB88B90000309B23C0319B23C0329BA9
:1002700023C0339B23C08FE788B90000309B20C088
:10028000319B20C0329B20C0339B20C080E008956A
:1002900081E3089584E3089587E308958AE2089549
:1002A00082E3089585E3089588E3089580E308953F
:1002B00083E3089586E3089589E3089583E208952A
:1002C00081E4089582E4089583E4089584E4089520
:1002D000CF93DF93EC01AEDF209709F052C090E09E
:1002E0008534910508F047C0FC01EA5BFF4F9EC0D2
:1002F0008FE180930F0142C081E080930F013EC0E7
:1003000082E080930F013AC083E080930F0136C0F2
:1003100084E080930F0132C085E080930F012EC0EE
:1003200086E080930F012AC087E080930F0126C0EA
:1003300088E080930F0122C089E080930F011EC0E6
:100340008AE080930F011AC08BE080930F0116C0E2
:100350008CE080930F0112C08DE080930F010EC0DE
:100360008EE080930F010AC010920F0107C08FE04A
:1003700080930F0103C08BE180930F0180910F01E7
:1003800085B9CE01DF91CF9108958FEF81B912B871
:1003900084B915B890EF97B99FE098B98AB91BB89E
:1003A000E4E0F1E0108282E090E0A0E0B0E0818340
:1003B0009283A383B48385839683A783B08788E6DB
:1003C00091E0928781876AE070E080E090E021DF31
:1003D000C0DEC4E0D1E04D815E816F817885898186
:1003E0009A81AB81BC81481759076A077B0761F482
:1003F0008881E985FA85082E000C990B0995888378
:100400001D821E821F8218868D819E81AF81B885D4
:100410000196A11DB11D8D839E83AF83B887809106
:1004200014018823E1F310921401D5CFEE0FFF1FC2
:100430000024001C0BBE0790F691E02D0994F8945F
:02044000FFCFEC
:0404420001000000B5
:00000001FF
