S01B00006D67616C6F3030315F6C6162355F70617274322E737265635D
S11300004EC000005CC000005AC0000058C0000090
S113001056C0000054C0000052C0000050C0000090
S11300204EC000004CC000004AC0000048C00000A0
S113003046C0000044C0000042C0000040C00000B0
S11300403EC000003CC000003AC0000038C00000C0
S113005036C0000034C0000032C0000030C00000D0
S11300602EC000002CC000002AC0000028C00000E0
S113007026C0000024C0000022C0000020C00000F0
S11300801EC000001CC000001AC000006C007000FC
S1130090840094009800A800AC00B600BA001124B3
S11300A01FBECFEFD0E4DEBFCDBF21E0A0E0B1E0C2
S11300B001C01D92A230B207E1F76FD085C0A0CF76
S11300C0E09101018E2F90E08930910508F05AC02B
S11300D0FC01EA5BFF4F6FC081E08093010108954A
S11300E0009904C082E0809301010895019904C03D
S11300F084E080930101089500994EC001994CC099
S113010086E0809301010895009B08C083E08093FA
S11301100101809100018930C0F1089501993CC02A
S113012086E080930101089581E0809301010895A0
S1130130019B08C085E08093010180910001811139
S113014028C00895009928C086E08093010108958D
S113015081E0809301010895009902C0019B1CC0B5
S113016087E08093010110920001089588E0809354
S113017001010895009B10C0019B0EC081E0809393
S1130180010108951092010108958F5F8093000189
S11301900895815080930001089511B88FEF82B9BA
S11301A084B915B8109200011092010189DF809181
S11301B0000185B9FBCFEE0FFF1F0024001C0BBE0E
S10F01C00790F691E02D0994F894FFCF0D
S9030000FC
