:1000000045C0000060C000005EC000005CC0000091
:100010005AC0000058C0000056C0000054C0000084
:1000200052C0000050C000004EC000004CC0000094
:100030004AC0000048C0000046C0000044C00000A4
:1000400042C0000040C000003EC000003CC00000B4
:100050003AC0000038C0000036C0000034C00000C4
:1000600032C0000030C000002EC000002CC00000D4
:100070002AC0000028C0000026C0000024C00000E4
:1000800022C0000020C000001EC0000011241FBEBE
:10009000CFEFD0E4DEBFCDBF11E0A0E0B1E0EEE1F4
:1000A000F2E000E00BBF02C007900D92A430B10750
:1000B000D9F721E0A4E0B1E001C01D92A830B20759
:1000C000E1F776D0AAC09CCFCF93DF93CDB7DEB750
:1000D00080910601882F90E080509F4FFC01908115
:1000E00080910401981731F4809106018F5F80930D
:1000F000060114C080910601882369F080910601F1
:10010000882F90E0019780509F4FFC019081809153
:100110000401981719F01092060100C00000DF9149
:10012000CF910895CF93DF93CDB7DEB780910701CC
:10013000882F90E08130910549F08230910591F04F
:10014000892BA1F481E08093070113C080910601FF
:10015000843031F482E0809307011092060109C0D7
:10016000B3DF07C081E08093070103C0109207014D
:10017000000080910701882F90E08130910589F07F
:100180008230910519F0892B71F00EC08091050124
:10019000813019F41092050107C081E080930501B8
:1001A00003C0000001C000000000DF91CF9108955E
:1001B000CF93DF93CDB7DEB781E290E0FC011082F0
:1001C00082E290E02FEFFC01208384E290E02FEFA9
:1001D000FC01208385E290E0FC01108287E290E040
:1001E0002FEFFC01208388E290E0FC011082109246
:1001F000070180E290E0FC0180818093040185E2A8
:1002000090E020910501FC0120838CDF88E290E0E2
:0E02100020910701FC012083ECCFF894FFCF72
:04021E0004010201D4
:00000001FF
