:1000000045C0000060C000005EC000005CC0000091
:100010005AC0000058C0000056C0000054C0000084
:1000200052C0000050C000004EC000004CC0000094
:100030004AC000006DC0000046C0000044C000007F
:1000400042C0000040C000003EC000003CC00000B4
:100050003AC0000038C0000036C0000034C00000C4
:1000600032C0000030C000002EC000002CC00000D4
:100070002AC0000028C0000026C0000024C00000E4
:1000800022C0000020C000001EC0000011241FBEBE
:10009000CFEFD0E4DEBFCDBF11E0A0E0B1E0E4E1FE
:1000A000F8E000E00BBF02C007900D92A432B10748
:1000B000D9F721E0A4E2B1E001C01D92A533B20757
:1000C000E1F7D8D1A5C39CCF8BE0809381008DE769
:1000D00090E0909389008093880082E080936F0085
:1000E000109285001092840080910001909101018E
:1000F000A0910201B091030180932B0190932C01F8
:10010000A0932D01B0932E018FB780688FBF089503
:100110001F920F920FB60F9211248F939F93AF935C
:10012000BF9380912B0190912C01A0912D01B09152
:100130002E010197A109B10980932B0190932C0105
:10014000A0932D01B0932E01892B8A2B8B2B99F430
:1001500081E080932F018091000190910101A09195
:100160000201B091030180932B0190932C01A09385
:100170002D01B0932E01BF91AF919F918F910F9060
:100180000FBE0F901F9018956093000170930101AE
:10019000809302019093030160932B0170932C01D3
:1001A00080932D0190932E010895CF92DF92EF92CC
:1001B000FF926B017C019B01AC0160912401709165
:1001C00025018091260190912701A9D1882309F466
:1001D00052C020E030E0A901C701B601A0D18111D1
:1001E00006C0E1E9F0E080818870808305C0E1E924
:1001F000F0E080818360808328E539E344E75FE3B2
:10020000C701B6018CD188233CF48FEF9FEF909308
:1002100099008093980023C020E034E244EF56E434
:10022000C701B6018ED218162CF4109299001092C4
:10023000980015C020E030E040E053E4C701B6016B
:1002400084D29B01AC0160E074E284EF9AE46BD14C
:10025000D2D1615071097093990060939800109207
:10026000950010929400C0922401D0922501E09252
:100270002601F0922701FF90EF90DF90CF90089534
:1002800080E4809390008BE08093910060E070E0C8
:10029000CB018BCF089580913301813041F018F06C
:1002A000823049F00CC081E08093330111C082E0BC
:1002B0008093330110C081E08093330109C0813005
:1002C00039F018F0823051F406C0109229010895D7
:1002D00010922901089581E0809329010895809169
:1002E0003201813051F028F0823059F0833069F0CA
:1002F00010C081E08093320117C082E08093320108
:1003000017C083E08093320117C081E080933201EF
:100310000BC0813049F028F0823051F0833079F4FD
:100320000BC010922A01089581E080932A0108955C
:1003300082E080932A01089584E080932A01089541
:1003400080913001882319F0813061F004C081E090
:100350008093300107C0882319F0813061F402C016
:1003600015B8089580912901880F880F880F909102
:100370002A01892B85B9089580913101813041F09E
:1003800018F0823059F010C081E08093310111C023
:1003900002990FC082E08093310110C0029B0EC011
:1003A00081E08093310105C0813019F0823031F055
:1003B000089560E070E0CB01F8CE0895E091280147
:1003C000F0E0EE0FFF1FEE0FFF1FEC5FFE4F6081AE
:1003D000718182819381E9CE0895809134018230C8
:1003E000E1F028F4882349F0813059F02AC08430A4
:1003F000F1F0B8F08530F9F024C081E08093340149
:100400000895009904C083E0809334010895019910
:1004100030C085E080933401089581E080933401F9
:100420000895009B26C082E08093340113C081E0D0
:10043000809334010895019B1CC084E080933401B3
:1004400011C0823039F0843069F0811112C01092ED
:100450002801089580912801873058F48F5F809398
:100460002801089580912801882319F081508093F4
:100470002801089511B88FEF82B984B915B861E0E9
:1004800070E080E090E080DE1FDEFADE1092330143
:100490001092320110923001109231010F2EFCE2C5
:1004A000CF2EDD24D394E12CF12CF02D0F2EF8EE7D
:1004B0008F2EF3E09F2EA12CB12CF02D88EE881604
:1004C00083E09806A104B10420F0E5DE812C912C94
:1004D00054018CE2C81681E0D806E104F10428F04A
:1004E000FEDEC12CD12C760107C082E0C816D104F3
:1004F000E104F10408F040DF23DF6FDF80912F017A
:100500008823E1F310922F018FEF881A980AA80A26
:10051000B80A8FEFC81AD80AE80AF80ACFCF9CD0D9
:1005200008F481E008950CD0D2C0CAD040F0C1D008
:1005300030F021F45F3F19F0B3C05111FCC0B6C0D8
:10054000D7D098F39923C9F35523B1F3951B550BD5
:10055000BB27AA2762177307840738F09F5F5F4F96
:10056000220F331F441FAA1FA9F333D00E2E3AF0D7
:10057000E0E830D091505040E695001CCAF729D0F1
:10058000FE2F27D0660F771F881FBB1F2617370740
:100590004807AB07B0E809F0BB0B802DBF01FF2770
:1005A00093585F4F2AF09E3F510568F079C0C3C051
:1005B0005F3FECF3983EDCF3869577956795B795AA
:1005C000F7959F5FC9F7880F911D9695879597F9C5
:1005D0000895E1E0660F771F881FBB1F621773073E
:1005E0008407BA0720F0621B730B840BBA0BEE1F53
:1005F00088F7E095089504D06894B1119CC00895DF
:100600007FD088F09F5790F0B92F9927B751A0F06D
:10061000D1F0660F771F881F991F1AF0BA95C9F796
:1006200012C0B13081F086D0B1E0089583C0672F49
:10063000782F8827B85F39F0B93FCCF38695779546
:100640006795B395D9F73EF490958095709561952F
:100650007F4F8F4F9F4F0895990F0008550FAA0B9A
:10066000E0E8FEEF16161706E807F907C0F01216C5
:100670001306E407F50798F0621B730B840B950BC8
:1006800039F40A2661F0232B242B252B21F408951D
:100690000A2609F4A140A6958FEF811D811D0895BA
:1006A00097F99F6780E870E060E008959FEF80EC25
:1006B000089500240A9416161706180609060895C8
:1006C00000240A9412161306140605060895092E2E
:1006D0000394000C11F4882352F0BB0F40F4BF2B9D
:1006E00011F460FF04C06F5F7F4F8F4F9F4F0895DD
:1006F00057FD9058440F551F59F05F3F71F04795D3
:10070000880F97FB991F61F09F3F79F087950895B7
:10071000121613061406551FF2CF4695F1DF08C0D6
:10072000161617061806991FF1CF869571056105F3
:1007300008940895E894BB2766277727CB0197F99B
:1007400008958ADF08F48FEF08950BD0C0CFB1DF92
:1007500028F0B6DF18F0952309F0A2CFA7CF112417
:10076000EACFC6DFA0F3959FD1F3950F50E0551F58
:10077000629FF001729FBB27F00DB11D639FAA27F6
:10078000F00DB11DAA1F649F6627B00DA11D661F45
:10079000829F2227B00DA11D621F739FB00DA11D66
:1007A000621F839FA00D611D221F749F3327A00D20
:1007B000611D231F849F600D211D822F762F6A2FBC
:1007C00011249F5750408AF0E1F088234AF0EE0F41
:1007D000FF1FBB1F661F771F881F91505040A9F74E
:1007E0009E3F510570F05CCFA6CF5F3FECF3983E83
:1007F000DCF3869577956795B795F795E7959F5FB5
:10080000C1F7FE2B880F911D9695879597F908954E
:04081000F894FFCF8A
:1008140001000000A4D082437BD49243A4D0A4431B
:10082400719DAE430000C4430000DC43A4F0F643D2
:0408340000D00244AA
:00000001FF
